:100000000C944A010C947B010C947B010C947B01B1
:100010000C947B010C947B010C947B010C947B0170
:100020000C947B010C947B010C947B010C947B0160
:100030000C947B010C947B010C947B010C947B0150
:100040000C947B010C947B010C947B010C947B0140
:100050000C947B010C947B010C947B010C94610447
:100060000C947B010C94D5040C94AB040C947B0190
:100070000C947B010C947B010C947B010C947B0110
:100080000C947B010C947B010C947B010C947B0100
:100090000C947B010C947B010C947B010C947B01F0
:1000A0000C947B010C947B010C947B010C947B01E0
:1000B0000C947B010C947B010C947B010C947B01D0
:1000C0000C947B010C947B010C947B010C947B01C0
:1000D0000C947B010C947B010C947B010C947B01B0
:1000E0000C947B0198019B018A018E019401D2013D
:1000F0009F01A301A901AD01B101B701BB01BF017E
:10010000D201C501C901CD010C94B1010C94AD011E
:100110000C94D3020C94C5010C9422030C94E702B6
:100120000C94C4020C94F5020C94A3010C949F014E
:100130000C948E010C94B7010C94BB010C94CD016E
:100140000C948A010C94A1070C94C9010C9494019D
:100150000C94D2010C949B010C94CE030C940B05CF
:100160000C94BF010C9469030C9498010C94A901A0
:1001700000002100240027002A002D003000330059
:1001800001010000040107010A010000220025000E
:1001900028002B002E003100340002010000050170
:1001A00008010B01000020002300260029002C007C
:1001B0002F003200000100000301060109010505BE
:1001C0000505070508080808020202020A0A0808CD
:1001D00004040404010101010101010103030303FB
:1001E00003030303040707070C0C0C0C0C0C0C0C8A
:1001F0000202020206060606060606060B0B0B0B9B
:100200000B0B0B0B010210202008081020401020BF
:1002100040800201020108040201010204081020CA
:1002200040808040201008040201800402018040C8
:100230002010080402010804020101020408102031
:100240004080010204081020408000000A0B0209CF
:100250000C0D0E0807030401000000000000000060
:10026000000000000000000000000000000000008E
:10027000000000000000121110000000000000004B
:10028000000000000000000000000000000000006E
:100290000B05A10711241FBECFEFD1E2DEBFCDBFFA
:1002A00000E00CBF23E0A4E5B2E001C01D92A03144
:1002B000B207E1F712E0A0E0B2E0EAEEF3E100E01D
:1002C0000BBF02C007900D92A435B107D9F711E01A
:1002D000C9E4D1E000E006C021970109802FFE01AA
:1002E0000E94A707C834D10780E00807A9F70E9439
:1002F00046050C94E3090C94000090E0FC01319752
:10030000E231F10508F04EC08827EE58FF4F8F4FBD
:100310000C94A707809180008F7703C080918000A4
:100320008F7D80938000089580918000877FF9CF32
:1003300084B58F7702C084B58F7D84BD0895809188
:10034000B0008F7703C08091B0008F7D8093B000A4
:100350000895809190008F7707C0809190008F7DE5
:1003600003C080919000877F8093900008958091D2
:10037000A0008F7707C08091A0008F7D03C080917F
:10038000A000877F8093A0000895809120018F773F
:1003900007C0809120018F7D03C080912001877F5D
:1003A000809320010895CF93DF93282F30E0F90147
:1003B000E65BFD4F8491F901EC5FFD4FD491F901AB
:1003C000E254FE4FC491CC2391F081110E947D0133
:1003D000EC2FF0E0EE0FFF1FEC55FE4FA591B4910E
:1003E000EC91ED2381E090E021F480E002C080E018
:1003F00090E0DF91CF9108951F93CF93DF93282F43
:1004000030E0F901E65BFD4F8491F901EC5FFD4FAF
:10041000D491F901E254FE4FC491CC23C9F0162FB8
:1004200081110E947D01EC2FF0E0EE0FFF1FE657D7
:10043000FE4FA591B4918FB7F894111105C09C910E
:10044000ED2FE095E92302C0EC91ED2BEC938FBFEB
:10045000DF91CF911F910895CF93DF9390E0FC013E
:10046000EC5FFD4F2491FC01E254FE4F8491882300
:1004700061F190E0880F991FFC01E059FE4FC59192
:10048000D491FC01E657FE4FA591B491611109C0CA
:100490009FB7F8948881209582238883EC912E233E
:1004A0000BC0623061F49FB7F8943881822F809539
:1004B00083238883EC912E2B2C939FBF06C08FB78C
:1004C000F894E8812E2B28838FBFDF91CF91089578
:1004D0003FB7F8948091650290916602A0916702FF
:1004E000B091680226B5A89B05C02F3F19F0019670
:1004F000A11DB11D3FBFBA2FA92F982F8827820FAA
:10050000911DA11DB11DBC01CD0142E0660F771FF9
:10051000881F991F4A95D1F708958F929F92AF92A5
:10052000BF92CF92DF92EF92FF920E9468024B013E
:100530005C0188ECC82ED12CE12CF12C0E946802C1
:10054000DC01CB0188199909AA09BB09883E9340AF
:10055000A105B10558F021E0C21AD108E108F1085F
:1005600088EE880E83E0981EA11CB11CC114D10432
:10057000E104F10419F7FF90EF90DF90CF90BF9066
:10058000AF909F908F900895FC01538D448D252F3F
:1005900030E0842F90E0821B930B541710F0CF961D
:1005A000089501970895FC01918D828D981761F04F
:1005B000828DDF01A80FB11D5D968C91928D9F5F9A
:1005C0009F73928F90E008958FEF9FEF0895FC0145
:1005D000918D828D981731F0828DE80FF11D858DF8
:1005E00090E008958FEF9FEF0895FC01918D228D8B
:1005F000892F90E0805C9F4F821B91098F73992710
:100600000895FC01848DDF01A80FB11DA35ABF4FCF
:100610002C91848D90E001968F739927848FA68901
:10062000B7892C93A089B1898C9180648C93938D28
:10063000848D981306C00288F389E02D80818F7D18
:1006400080830895EF92FF920F931F93CF93DF93D0
:10065000EC0181E0888F9B8D8C8D981305C0E88913
:10066000F989808185FD24C0F62E0B8D10E00F5F87
:100670001F4F0F731127E02E8C8DE8120CC00FB6A0
:1006800007FCFACFE889F989808185FFF5CFCE0193
:100690000E940103F1CF8B8DFE01E80FF11DE35A9B
:1006A000FF4FF0820B8FEA89FB898081806207C04F
:1006B000EE89FF896083E889F9898081806480837D
:1006C00081E090E0DF91CF911F910F91FF90EF902B
:1006D0000895CF93DF93EC01888D8823C9F0EA89D0
:1006E000FB89808185FD05C0A889B9898C9186FD2B
:1006F0000FC00FB607FCF5CF808185FFF2CFA88928
:10070000B9898C9185FFEDCFCE010E940103E7CF1F
:10071000DF91CF91089589E692E00E94F50221E0F1
:10072000892B09F420E0822F089580E090E0892B46
:1007300021F00E948B03811125C080E090E0892B7D
:1007400041F080E090E0892B21F00E9400008111AF
:100750001CC080E090E0892B41F080E090E0892B84
:1007600021F00E940000811113C080E090E0892BED
:10077000A1F080E090E0892B81F00E9400008111BF
:100780000AC008950E940000D8CF0E940000E1CF67
:100790000E940000EACF0C9400000895CF92DF92EF
:1007A000EF92FF920F931F93CF93DF936C017A0127
:1007B0008B01C0E0D0E0CE15DF0589F0D8016D9146
:1007C0008D01D601ED91FC910190F081E02DC601E3
:1007D0001995892B11F47E0102C02196ECCFC70137
:1007E000DF91CF911F910F91FF90EF90DF90CF900D
:1007F0000895089580E090E00895CF93DF930097E7
:1008000079F0FC0101900020E9F73197AF01481B16
:10081000590BBC0189E692E00E94CE03EC0102C0B4
:10082000C0E0D0E042E050E06BE172E089E692E0A7
:100830000E94CE038C0F9D1FDF91CF910895EF9200
:10084000FF920F931F93CF93DF93EC017B018A01FB
:1008500088819981009729F02A813B8124173507E7
:10086000F8F4B8016F5F7F4F0E94DC08009759F0E1
:10087000998388831B830A832C813D81232B81F4F8
:10088000FC0110820DC088819981009711F00E94AF
:100890004408198218821D821C821B821A8207C09A
:1008A0001D830C83B701888199810E94DC09CE01E8
:1008B000DF91CF911F910F91FF90EF9008950E94CB
:1008C000C5091F920F920FB60F9211242F933F93D9
:1008D0008F939F93AF93BF93809161029091620237
:1008E000A0916302B09164023091600223E0230F73
:1008F0002D3720F40196A11DB11D05C026E8230F58
:100900000296A11DB11D2093600280936102909315
:100910006202A0936302B093640280916502909199
:100920006602A0916702B09168020196A11DB11DF7
:100930008093650290936602A0936702B093680269
:10094000BF91AF919F918F913F912F910F900FBECB
:100950000F901F9018951F920F920FB60F921124AF
:100960000BB60F922F933F934F935F936F937F93A9
:100970008F939F93AF93BF93EF93FF9389E692E09A
:100980000E940103FF91EF91BF91AF919F918F91D1
:100990007F916F915F914F913F912F910F900BBE7F
:1009A0000F900FBE0F901F9018951F920F920FB6C9
:1009B0000F9211240BB60F922F938F939F93EF9367
:1009C000FF93E0917902F0917A028081E0917F02B9
:1009D000F091800282FD12C09081809182028F5F2F
:1009E0008F7320918302821751F0E0918202F0E030
:1009F000E759FD4F958F8093820201C08081FF915E
:100A0000EF919F918F912F910F900BBE0F900FBE82
:100A10000F901F901895E9E6F2E01382128288EE9B
:100A200093E0A0E0B0E084839583A683B7838DE054
:100A300092E09183808385EC90E09587848784ECB5
:100A400090E09787868780EC90E0918B808B81EC9B
:100A500090E0938B828B82EC90E0958B848B86EC7C
:100A600090E0978B868B118E128E138E148EE6E09B
:100A7000F3E011821082138212821582148247E001
:100A800050E06EE172E0CF010C941F04789484B5BD
:100A9000826084BD84B5816084BD85B5826085BD7A
:100AA00085B5816085BD80916E00816080936E0008
:100AB00010928100809181008260809381008091FA
:100AC00081008160809381008091800081608093AB
:100AD00080008091B10084608093B1008091B0006B
:100AE00081608093B000809191008260809391003A
:100AF000809191008160809391008091900081604D
:100B0000809390008091A10082608093A1008091E9
:100B1000A10081608093A1008091A00081608093FA
:100B2000A0008091210182608093210180912101A8
:100B30008160809321018091200181608093200158
:100B400080917A00846080937A0080917A0082603C
:100B500080937A0080917A00816080937A008091FE
:100B60007A00806880937A001092C100E091790247
:100B7000F0917A0282E08083E0917502F091760232
:100B80001082E0917702F091780280E180831092E8
:100B90008102E0917D02F0917E0286E08083E09107
:100BA0007B02F0917C02808180618083E0917B02F6
:100BB000F0917C02808188608083E0917B02F091DB
:100BC0007C02808180688083E0917B02F0917C02CE
:100BD00080818F7D8083C6E162E08C2F0E942C0291
:100BE000CF5FC132C9F761E08C2F0E942C02CF5F2A
:100BF000C333C9F7C3E061E08C2F0E942C02CF5FA2
:100C0000C730C9F7D1E002E010E0EE24E394F12C04
:100C100088E10E94D30121E0892B09F420E0209390
:100C20005F0289E10E94D30121E0892B09F420E0D1
:100C300020935E028AE10E94D30121E0892B09F40E
:100C400020E020935D028BE10E94D30121E0892BFB
:100C500009F420E020935C028CE10E94D30121E0A2
:100C6000892B09F420E020935B028DE10E94D301DF
:100C700021E0892B09F420E020935A028EE10E94A2
:100C8000D30121E0892B09F420E0209359028FE160
:100C90000E94D30121E0892B09F420E0209358021F
:100CA00080E20E94D30121E0892B09F420E0209307
:100CB000570286E10E94D301C1E0892B09F4C0E00C
:100CC000C093560287E10E94D30121E0892B09F4E9
:100CD00020E02093550280910A0390910B03892B09
:100CE00009F415C1C0900603D09007036EE172E0CD
:100CF000C6010E94D309892B09F0AEC0809102027F
:100D0000882309F404C180915402811100C186E254
:100D100092E00E94FD0361E085E00E94FC0160E03A
:100D200086E00E94FC0110920202D093540245E03A
:100D300050E069E272E086E093E00E941F040E94A6
:100D40008D0280910002909101028130910529F07D
:100D5000209155022111DBC05FC08FE292E00E941A
:100D6000FD0361E083E00E94FC01CAE261E08C2F98
:100D70000E94FC01CF5FC333C9F7109301020093B7
:100D800000020E948D0280915F02811104C082E303
:100D900092E00E94FD0380915E02811104C085E310
:100DA00092E00E94FD0380915D02811104C088E3FE
:100DB00092E00E94FD0380915C02811104C08BE3EC
:100DC00092E00E94FD0380915B02811104C08EE3DA
:100DD00092E00E94FD0380915A02811104C081E4D7
:100DE00092E00E94FD0380915902811104C084E4C5
:100DF00092E00E94FD0380915802811104C087E4B3
:100E000092E00E94FD0380915702811180C08AE424
:100E100092E00E94FD037BC0029709F078C08DE448
:100E200092E00E94FD0360E083E00E94FC0161E02B
:100E300084E00E94FC01CAE260E08C2F0E94FC0169
:100E4000CF5FC333C9F7C1E261E08C2F0E94FC0180
:100E5000CF5FCA32C9F756C0C11159C069E272E00A
:100E6000C6010E94D309892B09F051C0809102026A
:100E700081114DC080915402882309F448C080E557
:100E800092E00E94FD0360E085E00E94FC0161E0C9
:100E900086E00E94FC0110925402D093020247E0C7
:100EA00050E06EE172E086E093E00E941F040E9431
:100EB0008D0280910002909101028130910581F1B3
:100EC00020915502211123C0029709F58DE492E08B
:100ED0000E94FD0360E083E00E94FC0161E084E089
:100EE0000E94FC01CAE260E08C2F0E94FC01CF5FEF
:100EF000C333C9F7C1E261E08C2F0E94FC01CF5FD0
:100F0000CA32C9F7F0920102E09200023ACF0E9481
:100F10008D0289E692E00E9469030E94950378CED3
:100F20008FE292E00E94FD0361E083E00E94FC01F9
:100F3000CAE261E08C2F0E94FC01CF5FC333C9F786
:100F40001CCF80910603909107030C944408EE0F88
:100F5000FF1F881F8BBF0790F691E02D1994CF9348
:100F6000DF938230910510F482E090E0E0910E036F
:100F7000F0910F0320E030E0C0E0D0E0309711F1B5
:100F80004081518148175907C0F04817590761F44B
:100F900082819381209719F09B838A832BC0909341
:100FA0000F0380930E0326C02115310519F0421757
:100FB000530718F49A01BE01DF01EF010280F381AB
:100FC000E02DDCCF2115310509F1281B390B243028
:100FD000310590F412968D919C91139761157105CE
:100FE00021F0FB019383828304C090930F038093CD
:100FF0000E03FD01329644C0FD01E20FF31F819301
:101000009193225031092D933C933AC020910C03C7
:1010100030910D03232B41F42091050230910602FB
:1010200030930D0320930C032091030230910402AE
:101030002115310541F42DB73EB74091070250917B
:101040000802241B350BE0910C03F0910D03E2170D
:10105000F307A0F42E1B3F0B2817390778F0AC01DB
:101060004E5F5F4F2417350748F04E0F5F1F5093B8
:101070000D0340930C038193919302C0E0E0F0E0F4
:10108000CF01DF91CF9108950F931F93CF93DF93FB
:10109000009709F48CC0FC013297138212820091F0
:1010A0000E0310910F030115110581F42081318188
:1010B000820F931F20910C0330910D0328173907DD
:1010C00079F5F0930D03E0930C0371C0D80140E073
:1010D00050E0AE17BF0750F412962D913C91139734
:1010E000AD012115310509F1D901F3CF9D01DA01D7
:1010F0003383228360817181860F971F8217930744
:1011000069F4EC0128813981260F371F2E5F3F4F8C
:10111000318320838A819B8193838283452B29F4A9
:10112000F0930F03E0930E0342C01396FC93EE93EB
:101130001297ED01499159919E01240F351FE21735
:10114000F30771F480819181840F951F02961196A7
:101150009C938E938281938113969C938E93129786
:10116000E0E0F0E0D80112968D919C9113970097E2
:1011700019F0F8018C01F6CF8D919C9198012E5FAA
:101180003F4F820F931F20910C0330910D032817BE
:10119000390769F4309729F410920F0310920E0367
:1011A00002C01382128210930D0300930C03DF918F
:1011B000CF911F910F9108956F927F928F929F927E
:1011C000AF92BF92CF92DF92EF92FF920F931F9355
:1011D000CF93DF93EC01009789F4CB01DF91CF919E
:1011E0001F910F91FF90EF90DF90CF90BF90AF9045
:1011F0009F908F907F906F900C94AF07FC01E60F4B
:10120000F71F9C0122503109E217F30708F4ACC024
:10121000D9010D911C91119706171707B0F00530F1
:10122000110508F49FC0C80104978617970708F4B2
:1012300099C002501109061B170B019311936D936E
:101240007C93CF010E9444088DC05B01A01AB10AB3
:101250004C01800E911EA0910E03B0910F0340E04F
:1012600050E0E12CF12C109709F44AC0A815B905FB
:10127000D1F56D907C901197630182E0C80ED11C6E
:10128000CA14DB0480F1A3014A195B096A0182E0F8
:10129000C80ED11C1296BC9012971396AC91B5E073
:1012A000CB16D10440F0B282A38351834083D9018D
:1012B0006D937C930AC00E5F1F4FC301800F911F77
:1012C000F90191838083EB2DFA2FE114F10431F0C1
:1012D000D7011396FC93EE93129744C0F0930F033B
:1012E000E0930E033FC08D919C91119748175907C9
:1012F00008F4AC017D0112960D90BC91A02DB3CFE6
:1013000080910C0390910D0388159905E1F446171F
:101310005707C8F48091030290910402009741F4AA
:101320008DB79EB74091070250910802841B950B20
:10133000E817F907C8F4F0930D03E0930C03F901E3
:10134000718360830FC0CB010E94AF077C010097BF
:1013500059F0A801BE010E94CA09CE010E944408AA
:10136000C70104C0CE0102C080E090E0DF91CF91C0
:101370001F910F91FF90EF90DF90CF90BF90AF90B3
:101380009F908F907F906F90089581E090E0F89407
:101390000C94E309FB01DC0102C001900D92415065
:1013A0005040D8F70895FB01DC018D910190801920
:1013B0000110D9F3990B0895FB01DC0101900D9206
:1013C0000020E1F7089511E0C9E4D1E000E006C093
:1013D000802FFE010E94A7072196011DCA34D10764
:0A13E00080E00807A9F7F894FFCF9A
:1013EA00010001000010038000000000002203CE6B
:1013FA0003C4026903F502D302E7020D0A00576922
:10140A006E646F7773007769004C696E7578007047
:10141A0031006231006232006233006234006235A8
:10142A0000623600623700623800623900703200AA
:04143A006C690000D9
:00000001FF
